:020000040800F2
:1000000000060020E1010008A50E0008250E0008EA
:100010007D0E0008250E0008510E0008E3010008BF
:10002000E3010008E3010008E30100087121000872
:10003000E3010008E3010008E3010008E301000810
:10004000E3010008E3010008E3010008E301000800
:10005000E3010008E30100083932000865320008B6
:1000600091320008BD320008E9320008E3010008BF
:10007000E3010008E3010008E3010008E3010008D0
:10008000E3010008E3010008E3010008E3010008C0
:10009000E3010008E3010008E3010008153300084C
:1000A000E3010008E3010008E3010008E3010008A0
:1000B000AD300008E3010008E3010008E301000897
:1000C000E3010008E3010008E3010008E301000880
:1000D000E3010008E3010008E3010008E301000870
:1000E0007D330008E3010008E3010008E301000894
:1000F000E3010008E3010008E3010008E301000850
:10010000E3010008E3010008E3010008E30100083F
:10011000E3010008E3010008E3010008E30100082F
:10012000E3010008E3010008E3010008E30100081F
:10013000E3010008E3010008E3010008E30100080F
:10014000E3010008E3010008E3010008A928000812
:10015000E3010008E3010008E3010008E3010008EF
:10016000E3010008E3010008E3010008E3010008DF
:10017000E3010008E3010008E3010008E3010008CF
:10018000E3010008E3010008E3010008E3010008BF
:10019000E3010008E3010008E3010008E3010008AF
:1001A000E3010008E3010008E3010008E30100089F
:1001B000E3010008E3010008E3010008E30100088F
:1001C000E3010008E3010008E3010008E30100087F
:1001D000E3010008E3010008E3010008E30100086F
:1001E00002E000F000F8FEE772B63A4880F30888B3
:1001F000394880F3098839484EF60851CEF200019B
:10020000086040F20000CCF200004EF63471CEF2ED
:1002100000010860BFF34F8FBFF36F8F40F2000003
:10022000C0F2F0004EF68851CEF200010860BFF334
:100230004F8FBFF36F8F4FF00000E1EE100A4EF6C4
:100240003C71CEF200010860062080F31488BFF3F1
:100250006F8F02F00DF801F0E9FF02F08BFE4FF016
:1002600055301F491B4A91423CBF41F8040BFAE745
:100270001C49194A91423CBF41F8040BFAE71A495C
:100280001A4A1B4B9A423EBF51F8040B42F8040B2A
:10029000F8E700201749184A91423CBF41F8040B87
:1002A000FAE701F0C7FF02F0B9FE144C144DAC425E
:1002B00003DA54F8041B8847F9E700F041F8114CC1
:1002C000114DAC4203DA54F8041B8847F9E701F0FA
:1002D000AFBF000000060020002200200000000840
:1002E0000000002000060020A037000800220020A7
:1002F0004022002040220020A82D0020E00100081C
:10030000E0010008E0010008E00100082DE9F04FDD
:100310002DED108AC1F80CD0C3689D46BDEC108A43
:10032000BDE8F08F002383F311882846A047002002
:1003300001F02EFBFEE701F0A9FA00DFFEE7000066
:1003400038B501F0E5FE054601F008FF0446D8B9CE
:100350000F4B9D421AD001339D4218BF044641F213
:10036000883504BF01240025002001F0DBFE0CB11C
:1003700000F076F800F02CFD00F0A4FB284600F019
:10038000C3F800F06DF8F9E70025EDE70546EBE767
:10039000010007B008B500F067FBA0F12003584248
:1003A000584108BD07B541F21203022101A8ADF87A
:1003B000043000F077FB03B05DF804FB38B5202370
:1003C00083F311881748C3680BB101F067FB164A25
:1003D000144800234FF47A7101F024FB002383F3C7
:1003E0001188124C236813B12368013B23606368B2
:1003F00013B16368013B63600D4D2B7833B96368BB
:100400007BB9022000F056FC322363602B78032B6B
:1004100007D163682BB9022000F04CFC4FF47A73CB
:10042000636038BD40220020BD0300085C2300202B
:1004300054220020084B187003280CD8DFE800F085
:1004400008050208022000F025BC022000F012BCC2
:10045000024B00225A607047542200205C23002087
:10046000244B254A10B51C461968013140D004338D
:100470009342F9D16268214B9A4239D9204B9B684B
:1004800003F1006303F580339A4231D2002000F07B
:1004900033FB0220FFF7CEFF1A4B1A6C00221A64BE
:1004A000196E1A66196E596C5A64596E5A665A6EEC
:1004B0005A6942F080025A615A6922F080025A61F8
:1004C0005A691A6942F000521A611A6922F0005200
:1004D0001A611B6972B64FF0E0232021C3F8084D62
:1004E000D4E9003281F311889D4683F308881047D0
:1004F00010BD00BF0000010820000108FFFF000838
:1005000000220020003802402DE9F04F93B0AA4BA2
:1005100000902022FF210AA89D6800F003FCA74A52
:100520001378A3B9A6480121C3601170202383F377
:100530001188C3680BB101F0B1FAA24AA0480023A8
:100540004FF47A7101F06EFA002383F31188009B57
:1005500013B19D4B009A1A609C4A009C1378032BA0
:100560001EBF00231370984A4FF0000A18BF536053
:10057000D3465646D146012000F08CFB24B1924B65
:100580001B68002B00F01182002000F06DFA039030
:10059000039B002BF2DB012000F06CFB039B213B53
:1005A000162BE8D801A252F823F000BF0906000874
:1005B00031060008C5060008770500087705000821
:1005C000770500084F0700081F09000839080008D0
:1005D0009B080008C3080008E90800087705000820
:1005E000FB080008770500086D090008A906000847
:1005F00077050008B109000815060008A9060008DB
:10060000770500089B0800080220FFF7C3FE0028BA
:1006100040F0F581009B0221BAF1000F08BF1C4693
:1006200005A841F21233ADF8143000F03BFAA2E70E
:100630004FF47A7000F018FA071EEBDB0220FFF788
:10064000A9FE0028E6D0013F052F00F2DA81DFE89D
:1006500007F0030A0D10133605230593042105A89E
:1006600000F020FA17E054480421F9E75848042123
:10067000F6E758480421F3E74FF01C08404600F025
:100680003DFA08F104080590042105A800F00AFAD3
:10069000B8F12C0FF2D1012000FA07F747EA0B0B53
:1006A0005FFA8BFB4FF0000900F088FB26B10BF0DE
:1006B0000B030B2B08BF0024FFF774FE5BE74648D3
:1006C0000421CDE7002EA5D00BF00B030B2BA1D1FD
:1006D0000220FFF75FFE074600289BD0012000F0B4
:1006E0000BFA0220FFF7A6FE00265FFA86F84046C6
:1006F00000F012FA044690B10021404600F01CFAC6
:1007000001360028F1D1BA46044641F21213022103
:1007100005A8ADF814303E4600F0C4F92BE70120DF
:10072000FFF788FE2546244B9B68AB4207D9284635
:1007300000F0E4F9013040F067810435F3E7234B22
:1007400000251D70204BBA465D603E46ACE7002E8A
:100750003FF460AF0BF00B030B2B7FF45BAF022079
:10076000FFF768FE322000F07FF9B0F10008FFF6D5
:1007700051AF18F003077FF44DAF0F4A926808EBB2
:10078000050393423FF646AFB8F5807F3FF742AF8F
:10079000124B0193B84523DD4FF47A7000F064F9F1
:1007A0000390039A002AFFF635AF019B039A03F8E2
:1007B000012B0137EDE700BF002200205823002065
:1007C00040220020BD0300085C23002054220020AA
:1007D00004220020082200200C22002058220020A1
:1007E000C820FFF7D7FD074600283FF413AF1F2DA1
:1007F00011D8C5F1200242450AAB25F0030028BFFD
:10080000424683490192184400F066FA019A8048F2
:10081000FF2100F087FA4FEAA8037D490193C8F34E
:100820008702284600F086FA064600283FF46DAF9E
:10083000019B05EB830537E70220FFF7ABFD00289E
:100840003FF4E8AE00F0A4F900283FF4E3AE00273F
:10085000B846704B9B68BB4218D91F2F11D80A9B12
:1008600001330ED027F0030312AA134453F8203C9F
:1008700005934046042205A900F016FB0437804684
:10088000E7E7384600F03AF90590F2E7CDF8148032
:10089000042105A800F006F906E70023642104A856
:1008A000049300F0F5F800287FF4B4AE0220FFF7BF
:1008B00071FD00283FF4AEAE049800F051F90590A8
:1008C000E6E70023642104A8049300F0E1F800287F
:1008D0007FF4A0AE0220FFF75DFD00283FF49AAE42
:1008E000049800F04DF9EAE70220FFF753FD0028D5
:1008F0003FF490AE00F05CF9E1E70220FFF74AFD1B
:1009000000283FF487AE05A9142000F057F9042110
:100910000746049004A800F0C5F83946B9E732202C
:1009200000F0A2F8071EFFF675AEBB077FF472AEAB
:10093000384A926807EB090393423FF66BAE0220F8
:10094000FFF728FD00283FF465AE27F003074F446A
:10095000B9453FF4A9AE484600F0D0F8042105900F
:1009600005A800F09FF809F10409F1E74FF47A7047
:10097000FFF710FD00283FF44DAE00F009F9002804
:1009800044D00A9B01330BD008220AA9002000F0B2
:10099000D1F900283AD02022FF210AA800F0C2F99C
:1009A000FFF700FD1C4800F0F9FF13B0BDE8F08F21
:1009B000002E3FF42FAE0BF00B030B2B7FF42AAE6F
:1009C0000023642105A8059300F062F8074600287B
:1009D0007FF420AE0220FFF7DDFC804600283FF4C4
:1009E00019AEFFF7DFFC41F2883000F0D7FF059821
:1009F00000F016FA464600F0E1F93C46BBE5064633
:100A000052E64FF0000905E6BA467EE637467CE638
:100A10005822002000220020A086010070B50F4B54
:100A20001B780133DBB2012B0C4611D80C4D296821
:100A30004FF47A730E6AA2FB03320146224628461F
:100A4000B047844204D1074B00221A70012070BDC8
:100A50004FF4FA7000F0A2FF0020F8E71022002007
:100A6000502500209023002007B5002302460121D5
:100A70000DF107008DF80730FFF7D0FF20B19DF88A
:100A8000070003B05DF804FB4FF0FF30F9E700000A
:100A90000A4608B50421FFF7C1FF80F00100C0B28B
:100AA000404208BD30B4054C2368DD69044B0A465A
:100AB000AC460146204630BC604700BF50250020B0
:100AC000A086010070B501F015FA094E094D30807D
:100AD000002428683388834208D901F005FA2B687E
:100AE00004440133B4F5803F2B60F2D370BD00BFE6
:100AF000922300206423002001F0BEBA00F10060C0
:100B000000F580300068704700F10060920000F549
:100B1000803001F03DBA0000054B1A68054B1B8878
:100B20009B1A834202D9104401F0DEB900207047BD
:100B3000642300209223002038B5084D044629B1D3
:100B400028682044BDE8384001F0EEB92868204408
:100B500001F0D2F90028F3D038BD00BF6423002093
:100B600010F003030AD1B0F5047F05D200F1005064
:100B7000A0F51040D0F80038184670470023FBE776
:100B800000F10050A0F51040D0F8100A70470000A6
:100B9000064991F8243033B10023086A81F82430E3
:100BA0000822FFF7B1BF0120704700BF6823002073
:100BB000014B1868704700BF002004E070B52A4B55
:100BC0001B68C3F30B0204461B0C62B140F21340D6
:100BD000824230D040F2194082422ED040F2214071
:100BE00082422CD10322214D0C2000FB0252556879
:100BF00042F20102934224D0B3F5805F23D041F248
:100C00000102934221D041F2030293421FD041F2EC
:100C10000702934214BF3F233123013C0C44013DA2
:100C20000A46A24215D215F9016F501C9EB100F878
:100C3000016C0246F5E70122D5E70222D3E70C4D0D
:100C4000D6E73323E9E74123E7E75A23E5E75923CA
:100C5000E3E7104605E02C258442157001D9901C6D
:100C60005370401A70BD00BF002004E0A834000893
:100C70007C340008022804D1054B4FF000529A61E1
:100C800070470128FCD1024B4FF08042F7E700BFCC
:100C900000080240022804D1054B4FF400529A612B
:100CA00070470128FCD1024B4FF48042F7E700BFA8
:100CB00000080240022805D1064A536983F4005314
:100CC000536170470128FCD1024A536983F4804381
:100CD000F6E700BF0008024010B50023934203D09E
:100CE000CC5CC4540133F9E710BD000010B50138E5
:100CF00010F9013F3BB191F900409C4203D11AB178
:100D00000131013AF4E71AB191F90020981A10BDA7
:100D10001046FCE703460246D01A12F9011B0029CF
:100D2000FAD1704702440346934202D003F8011BF4
:100D3000FAE770472DE9F8431F4D144695F8242033
:100D40000746884652BBDFF870909CB395F8243074
:100D50002BB92022FF2148462F62FFF7E3FF95F8C9
:100D60002400C0F10802A24228BF2246D6B2414662
:100D7000920005EB8000FFF7AFFF95F82430A41B2D
:100D80001E44F6B2082E17449044E4B285F824605D
:100D9000DBD1FFF7FDFE0028D7D108E02B6A03EB7B
:100DA00082038342CFD0FFF7F3FE0028CBD100208F
:100DB000BDE8F8830120FBE768230020024B1A7886
:100DC000024B1A70704700BF9023002010220020B1
:100DD00010B50F4C0F4800F0F7F821460D4800F011
:100DE0001FF924680C48626DD2F8043843F00203FE
:100DF000C2F8043800F0D2FD0849204600F016FA87
:100E0000626DD2F8043823F00203C2F8043810BD32
:100E10009C3500085025002040420F00A4350008F2
:100E20007047000000B59BB0EFF309816822684667
:100E3000FFF752FFEFF30583044B9A6BDA6A9A6A65
:100E40009A6A9A6A9A6A9A6A9B6AFEE700ED00E0DB
:100E500000B59BB0EFF3098168226846FFF73CFFBD
:100E6000EFF30583044B9A6B9A6A9A6A9A6A9A6AB4
:100E70009A6A9B6AFEE700BF00ED00E000B59BB0F8
:100E8000EFF3098168226846FFF726FFEFF3058339
:100E9000034B5A6B9A6A9A6A9A6A9A6A9B6AFEE745
:100EA00000ED00E0FEE7000030B5094D0A44914234
:100EB0000DD011F8013B5840082340F30004013BDA
:100EC0002C4013F0FF0384EA5000F6D1EFE730BD69
:100ED0002083B8ED026843681143016003B11847ED
:100EE0007047000013B5446BD4F894341A68117835
:100EF000042915D1217C022912D1197912890123E3
:100F00008B4013420CD101A904F14C0001F038FFD1
:100F1000D4F89444019B21790246206800F0CEF970
:100F200002B010BD143001F0BBBE00004FF0FF3323
:100F3000143001F0B5BE00004C3001F08DBF000050
:100F40004FF0FF334C3001F087BF0000143001F048
:100F500089BE00004FF0FF31143001F083BE000065
:100F60004C3001F059BF00004FF0FF324C3001F01F
:100F700053BF00000020704710B5D0F894341A68B1
:100F800011780429044617D1017C022914D159791A
:100F9000528901238B4013420ED1143001F01CFE04
:100FA000024648B1D4F894444FF4807361792068C4
:100FB000BDE8104000F070B910BD0000406BFFF7B5
:100FC000DBBF0000704700007FB5124B03600023B9
:100FD0004360C0E90233012502260F4B0574044625
:100FE0000290019300F18402294600964FF4807329
:100FF000143001F0CDFD094B0294CDE9006304F5F6
:1010000023724FF48073294604F14C0001F094FEE2
:1010100004B070BDD8340008BD0F0008E50E00080C
:101020000B68202282F311880A7903EB8202906117
:101030004A79093243F822008A7912B103EB82031C
:10104000986102230374C0F89414002383F3118879
:101050007047000038B5037F044613B190F8543050
:10106000ABB9201D01250221FFF734FF04F1140064
:1010700025776FF0010100F0B9FC84F8545004F1B9
:101080004C006FF00101BDE8384000F0AFBC38BD46
:1010900010B5012104460430FFF71CFF002323771D
:1010A00084F8543010BD000038B5044600251430D3
:1010B00001F086FD04F14C00257701F055FE201D5E
:1010C00084F854500121FFF705FF2046BDE8384061
:1010D000FFF752BF90F8443003F06003202B07D194
:1010E00090F84520212A4FF0000303D81F2A06D884
:1010F00000207047222AFBD1C0E90E3303E0034AE7
:1011000082630722C263036401207047112200201A
:1011100037B5D0F894341A681178042904461AD1E6
:10112000017C022917D11979128901238B401342BE
:1011300011D100F14C05284601F0D6FE58B101A9A5
:10114000284601F01DFED4F89444019B2179024603
:10115000206800F0B3F803B030BD0000F0B500EB3C
:10116000810385B09E6904460D46FEB1202383F3BA
:10117000118804EB8507301D0821FFF7ABFEFB68E3
:101180005B691B6806F14C001BB1019001F006FE83
:10119000019803A901F0F4FD024648B1039B2946DA
:1011A000204600F08BF8002383F3118805B0F0BDD2
:1011B000FB685A691268002AF5D01B8A013B13406C
:1011C000F1D104F14402EAE7093138B550F8214081
:1011D000DCB1202383F31188D4F894241368527966
:1011E00003EB8203DB689B695D6845B104216018ED
:1011F000FFF770FE294604F1140001F0F7FC2046C9
:10120000FFF7BAFE002383F3118838BD7047000052
:1012100001F0A4B8012303700023C0E90133C361C6
:1012200083620362C36243620363704738B5044656
:10123000202383F311880025C0E90355C0E9055533
:10124000416001F09BF80223237085F3118838BDBB
:1012500070B500EB810305465069DA600E4614460E
:1012600018B110220021FFF75DFDA06918B110220E
:101270000021FFF757FD31462846BDE8704001F0D8
:1012800047B90000826802F0011282600022C0E9C2
:101290000422826101F0C8B9F0B400EB81044789EF
:1012A000E4680125A4698D403D4345812360002306
:1012B000A2606360F0BC01F0E3B90000F0B400EBA1
:1012C00081040789E468012564698D403D430581F7
:1012D00023600023A2606360F0BC01F05DBA0000EF
:1012E00070B50223002504460370C0E90255C0E929
:1012F0000455C564856180F8345001F0A5F8636831
:101300001B6823B129462046BDE87040184770BDD0
:10131000037880F850300523037043681B6810B5CC
:1013200004460BB1042198470023A36010BD0000C0
:1013300090F85020436802701B680BB105211847D4
:101340007047000070B590F83430044613B10023A4
:1013500080F8343004F14402204601F087F96368D4
:101360009B68B3B994F8443013F0600535D0002180
:10137000204601F0D9FB0021204601F0CBFB636839
:101380001B6813B1062120469847062384F83430A1
:1013900070BD204698470028E4D0B4F84A30E26B8C
:1013A0009A4288BFE36394F94430E56B002B4FF019
:1013B000200380F20381002D00F0F280092284F8DE
:1013C000342083F311880021D4E90E232046FFF74F
:1013D00075FF002383F31188DAE794F8452003F0C2
:1013E0007F0343EA022340F20232934200F0C580B9
:1013F00021D8B3F5807F48D00DD8012B3FD0022BE8
:1014000000F09380002BB2D104F14C02A2630222BF
:10141000E2632364C1E7B3F5817F00F09B80B3F5FD
:10142000407FA4D194F84630012BA0D1B4F84C30C1
:1014300043F0020332E0B3F5006F4DD017D8B3F597
:10144000A06F31D0A3F5C063012B90D8636894F8E6
:1014500046205E6894F84710B4F848302046B047FC
:10146000002884D04368A3630368E3631AE0B3F5FC
:10147000106F36D040F6024293427FF478AF5C4B57
:10148000A3630223E3630023C3E794F84630012BF0
:101490007FF46DAFB4F84C3023F00203C4E90E556D
:1014A000A4F84C30256478E7B4F84430B3F5A06F65
:1014B0000ED194F8463084F84E30204601F01CF8E6
:1014C00063681B6813B101212046984703232370EA
:1014D0000023C4E90E339CE704F14F03A363012307
:1014E000C3E72378042B10D1202383F311882046EF
:1014F000FFF7C8FE85F311880321636884F84F5015
:1015000021701B680BB12046984794F84630002B99
:10151000DED084F84F300423237063681B68002BEF
:10152000D6D0022120469847D2E794F848301D06CD
:1015300003F00F0120460AD501F08AF8012804D0F3
:1015400002287FF414AF2B4B9AE72B4B98E701F05E
:1015500071F8F3E794F84630002B7FF408AF94F865
:10156000483013F00F01B3D01A06204602D501F01F
:10157000EFFAADE701F0E2FAAAE794F84630002B63
:101580007FF4F5AE94F8483013F00F01A0D01B069D
:10159000204602D501F0C8FA9AE701F0BBFA97E7B6
:1015A000142284F8342083F311882B462A462946D6
:1015B0002046FFF771FE85F31188E9E65DB115223B
:1015C00084F8342083F311880021D4E90E232046C7
:1015D000FFF762FEFDE60B2284F8342083F31188C6
:1015E0002B462A4629462046FFF768FEE3E700BF60
:1015F00008350008003500080435000838B590F8B3
:1016000034300446002B3ED0063BDAB20F2A34D8E1
:101610000F2B32D8DFE803F0373131082232313175
:101620003131313131313737C56BB0F84A309D42F5
:1016300014D2C3681B8AB5FBF3F203FB12556DB9D4
:10164000202383F311882B462A462946FFF736FECE
:1016500085F311880A2384F834300EE0142384F8CB
:101660003430202383F3118800231A46194620467C
:10167000FFF712FE002383F3118838BD036C03B11A
:1016800098470023E7E70021204601F04DFA0021AA
:10169000204601F03FFA63681B6813B1062120461B
:1016A00098470623D7E7000010B590F83430142B84
:1016B000044629D017D8062B05D001D81BB110BD80
:1016C000093B022BFBD80021204601F02DFA002116
:1016D000204601F01FFA63681B6813B106212046FB
:1016E0009847062319E0152BE9D10B2380F83430F5
:1016F000202383F3118800231A461946FFF7DEFDE5
:10170000002383F31188DAE7C3689B695B68002BC9
:10171000D5D1036C03B19847002384F83430CEE769
:10172000024B0022C3E900339A60704794230020E3
:10173000002303748268054B1B6899689142FBD2B1
:101740005A6803604260106058607047942300201C
:1017500008B5202383F31188037C032B05D0042BC9
:101760000DD02BB983F3118808BD436900221A609C
:101770004FF0FF334361FFF7DBFF0023F2E7D0E9CF
:10178000003213605A60F3E7002303748268054B4C
:101790001B6899689142FBD85A68036042601060E8
:1017A0005860704794230020054B19690874186825
:1017B00002681A605360186101230374FEF7A6BD26
:1017C0009423002030B54B1C0B4D87B0044610D03D
:1017D0002B690A4A01A800F025F92046FFF7E4FF2B
:1017E000049B13B101A800F059F92B69586907B09F
:1017F00030BDFFF7D9FFF8E7942300205117000808
:1018000038B50C4D41612B6981689A689142044654
:1018100003D8BDE83840FFF78BBF1846FFF7B4FF89
:1018200001232C61014623742046BDE83840FEF7B1
:101830006DBD00BF94230020044B1A681B6990689B
:101840009B68984294BF0020012070479423002099
:1018500010B5084C236820691A6822605460012280
:1018600023611A74FFF790FF01462069BDE810401C
:10187000FEF74CBD9423002008B5FFF7DDFF18B13B
:10188000BDE80840FFF7E4BF08BD0000FFF7E0BF78
:10189000FEE7000010B50C4CFFF742FF00F0B4F873
:1018A0000A498022204600F03BF8012344F8180C36
:1018B000037400F06DFC002383F3118862B60448C2
:1018C000BDE8104000F04CB8BC2300200C350008E7
:1018D0001C35000800F01CB9EFF3118020B9EFF3BC
:1018E0000583202282F311887047000010B530B9BB
:1018F000EFF30584C4F3080414B180F3118810BD1C
:10190000FFF7BAFF84F31188F9E70000034A516832
:1019100053685B1A9842FBD8704700BF001000E084
:1019200082600222028270478368A3F17C0243F83E
:101930000C2C026943F83C2C426943F8382C074AC6
:1019400043F81C2CC26843F8102C022203F8082C20
:10195000002203F8072CA3F11800704725030008A4
:1019600010B5202383F31188FFF7DEFF0021044622
:10197000FFF746FF002383F31188204610BD0000C7
:10198000024B1B6958610F20FFF70EBF9423002004
:10199000202383F31188FFF7F3BF000008B5014649
:1019A000202383F311880820FFF70CFF002383F323
:1019B000118808BD49B1064B42681B6918605A601E
:1019C000136043600420FFF7FDBE4FF0FF30704707
:1019D000942300200368984206D01A680260506081
:1019E00059611846FFF7A4BE7047000038B5044699
:1019F0000D462068844200D138BD036823605C60D6
:101A00004561FFF795FEF4E7054B03F11402C3E9C6
:101A100005224FF0FF310022C3E90712704700BFD3
:101A20009423002070B51C4EC0E9032305460C46E4
:101A300001F08CFA334653F8142F9A420DD13062DC
:101A4000C5E901242A600A2C2CBF00190A30C6E916
:101A50000555BDE8704001F067BA316A431AE318D2
:101A600038BF1C469368A34202D9081901F06AFAEC
:101A700073699A6894420CD85A68AC602B606A60AB
:101A800015609A685D60121B9A604FF0FF33F36136
:101A900070BD1B68A41AECE79423002038B51B4CDA
:101AA000636998420DD0D0E9003213605A60002279
:101AB0008168C2609A680A449A604FF0FF33E3611C
:101AC00038BD2246036842F8143F002193425A6011
:101AD000C16003D1BDE8384001F02EBA9A68816830
:101AE000256A0A449A6001F031FA63699A68411BD9
:101AF0008A42E5D9AB181D1A092D206A98BF01F159
:101B00000A02BDE83840104401F01CBA94230020BA
:101B10002DE9F041184C002704F11406656901F025
:101B200015FA236AAA68C11A8A4215D81344236297
:101B3000D5E9003213605A606369D5F80C80EF6014
:101B4000B34201D101F0F8F987F311882869C04741
:101B5000202383F31188E1E76169B14209D013447E
:101B60001B1ABDE8F0410A2B2CBFC0180A3001F047
:101B7000E9B9BDE8F08100BF942300200020704740
:101B8000FEE70000704700004FF0FF307047000094
:101B900002290CD0032904D00129074818BF0020CE
:101BA0007047032A05D8054800EBC2007047044877
:101BB00070470020704700BF003600082022002038
:101BC000B435000870B59AB00546084601A9144618
:101BD00000F0C2F801A8FFF79DF8431C5B00C5E9BF
:101BE00000340022237003236370C6B201AB0234B9
:101BF0001046D1B28E4204F1020401D81AB070BD71
:101C000013F8011B04F8021C04F8010C0132F0E780
:101C100008B5202383F311880348FFF779FA0023DE
:101C200083F3118808BD00BF5025002090F8443090
:101C300003F01F02012A07D190F845200B2A03D197
:101C40000023C0E90E3315E003F06003202B08D118
:101C5000B0F848302BB990F84520212A03D81F2A24
:101C600004D8FFF737BA222AEBD0FAE7034A826397
:101C70000722C26303640120704700BF18220020BE
:101C800007B5052917D8DFE801F01916031919203F
:101C9000202383F31188104A01900121FFF7D8FA1D
:101CA00001980E4A0221FFF7D3FA0D48FFF7FCF91D
:101CB000002383F3118803B05DF804FB202383F332
:101CC00011880748FFF7C6F9F2E7202383F311884C
:101CD0000348FFF7DDF9EBE75435000878350008D5
:101CE0005025002038B50C4D0C4C0D492A4604F106
:101CF0000800FFF767FF05F1CA0204F11000094967
:101D0000FFF760FF05F5CA7204F118000649BDE847
:101D10003840FFF757BF00BF182A002020220020BC
:101D2000343500083E3500084935000870B50446D2
:101D300008460D46FEF7EEFFC6B220460134037892
:101D40000BB9184670BD32462946FEF7CFFF002872
:101D5000F3D10120F6E700002DE9F84F05460C46C7
:101D6000FEF7D8FF2949C6B22846FFF7DFFF08B1C2
:101D70000136F6B226492846FFF7D8FF08B11036DB
:101D8000F6B2632E0DD8DFF88490DFF884A0214FDF
:101D9000DFF888B0DFF888802E7846B92670BDE875
:101DA000F88F29462046BDE8F84F01F05FBB252E8D
:101DB00028D1072249462846FEF798FF40B9D8F8AF
:101DC00000302360D8F80430636007350834E3E757
:101DD000082251462846FEF789FF98B90E4BA21CEF
:101DE000197809090232C95D02F8041C13F8011BB5
:101DF00001F00F015B45C95D02F8031CF0D11834F6
:101E00000835C9E704F8016B0135C5E7203600083D
:101E10004935000831360008107AFF1F1C7AFF1F71
:101E200028360008BFF34F8F024AD368DB03FCD487
:101E3000704700BF003C024008B5094B1B7873B9DE
:101E4000FFF7F0FF074B1A69002ABFBF064A5A6026
:101E500002F188325A601A6822F480621A6008BD62
:101E6000762C0020003C02402301674508B50B4B4F
:101E70001B7893B9FFF7D6FF094B1A6942F000426D
:101E80001A611A6842F480521A601A6822F4805269
:101E90001A601A6842F480621A6008BD762C00202D
:101EA000003C02400B28F0B516D80C4C0C492378A6
:101EB0007BB90C4D0E460C234FF0006255F8047BA5
:101EC00046F8042B013B13F0FF033A44F6D10123FB
:101ED000237051F82000F0BD0020FCE7A82C002062
:101EE000782C002044360008014B53F8200070473E
:101EF000443600080C2070470B2810B5044601D961
:101F0000002010BDFFF7CEFF064B53F824301844D5
:101F1000C21A0BB90120F4E712680132F0D1043B78
:101F2000F6E700BF443600080B2838B5044628D829
:101F3000FFF7D2FCFFF776FFFFF77EFF124AF3238D
:101F4000D360E300DBB243F4007343F00203136198
:101F5000136943F48033136105462046FFF762FF9F
:101F6000FFF7A0FF094B53F8241000F0E9F82846CA
:101F7000FFF77CFFFFF7BAFC2046BDE83840FFF7CB
:101F8000BBBF002038BD00BF003C02404436000803
:101F900012F001032DE9F04105460E4614464BD1DF
:101FA0008218B2F1016F61D8314B1B6813F0010345
:101FB0005CD0304FFFF790FCFFF73EFFF323FB6050
:101FC000FFF730FF314640F20128032C18D824F0E7
:101FD0000104284E0C446D1A40F20118A1423369E5
:101FE00005EB01072AD123F001033361FFF73EFF20
:101FF000FFF77CFC0120BDE8F081043C0435E4E7F8
:10200000AB07E4D13B6923F440733B613B6943EA8E
:1020100008033B6151F8046B2E60BFF34F8FFFF74D
:1020200001FF2B689E42E8D03B6923F001033B612E
:10203000FFF71CFFFFF75AFC0020DCE723F4407396
:102040003361336943EA080333610B883B80BFF394
:102050004F8FFFF7E7FE3F8831F8023BBFB2BB422C
:10206000BCD0336923F001033361E1E71846C2E7CE
:1020700000380240003C0240084908B50B7828B1FE
:102080001BB9FFF7D9FE01230B7008BD002BFCD054
:10209000BDE808400870FFF7E9BE00BF762C0020BD
:1020A00010B50244064BD2B2904200D110BD441C80
:1020B00000B253F8200041F8040BE0B2F4E700BF8F
:1020C000502800400F4B30B51C6F240407D41C6F00
:1020D00044F400741C671C6F44F400441C670A4CF1
:1020E000236843F4807323600244084BD2B29042C9
:1020F00000D130BD441C00B251F8045B43F82050BD
:10210000E0B2F4E700380240007000405028004080
:1021100007B5012201A90020FFF7C2FF019803B013
:102120005DF804FB13B50446FFF7F2FFA04205D0AB
:10213000012201A900200194FFF7C4FF02B010BDE5
:1021400070470000034B1A681AB9034AD2F8742882
:102150001A607047AC2C00200030024008B5FFF731
:10216000F1FF024B1868C0F3407008BDAC2C002092
:10217000EFF3098305494A6B22F001024A63683391
:1021800083F30988002383F31188704700EF00E090
:10219000202080F3118862B60C4B0D4AD96821F4D7
:1021A000E0610904090C0A43DA60D3F8FC2009490C
:1021B00042F08072C3F8FC200A6842F001020A6013
:1021C0001022DA7783F82200704700BF00ED00E0AC
:1021D0000003FA05001000E010B5202383F31188F6
:1021E0000E4B5B6813F4006314D0F1EE103AEFF37A
:1021F0000984683C4FF08073E361094BDB6B236615
:1022000084F30988FFF718FB10B1064BA36110BDDA
:10221000054BFBE783F31188F9E700BF00ED00E011
:1022200000EF00E0370300083A03000870470000A1
:10223000FEE700000A4B0B480B4A90420BD30B4BB6
:10224000DA1C121AC11E22F003028B4238BF002290
:102250000021FEF767BD53F8041B40F8041BECE7B0
:10226000E0370008A82D0020A82D0020A82D002070
:102270007047000070B5D0E915439E6800224FF00A
:10228000FF3504EB42135101D3F800090028BEBF0B
:10229000D3F8000940F08040C3F80009D3F8000BE0
:1022A0000028BEBFD3F8000B40F08040C3F8000BFD
:1022B000013263189642C3F80859C3F8085BE0D2AC
:1022C0004FF00113C4F81C3870BD00001D4B03EB28
:1022D00080022DE9F043D2F80CC05D6DDCF81420CB
:1022E000461CD2F800E005EB063605EB40185168B5
:1022F00071450AD3D5F83438012202FA00F023EAF6
:102300000000C5F83408BDE8F083BCF81040AEEB1F
:102310000103A34228BF2346D8F81849A4B2B3EB5F
:10232000840FF0D89468A4F1040959F8047F376049
:10233000A4EB09071F44042FF7D81C440B449460F6
:102340005360D4E7B02C0020890141F020010161E5
:1023500003699B06FCD41220FFF7D8BA10B5054CD0
:102360002046FEF757FF4FF0A0436365024BA3657D
:1023700010BD00BFB02C00209836000870B503785F
:10238000012B054650D12A4B446D98421BD1294B55
:102390005A6B42F080025A635A6D42F080025A65CD
:1023A0005A6D5A6942F080025A615A6922F08002DD
:1023B0005A610E2143205B6900F0D4FB1E4BE360A1
:1023C0001E4BC4F800380023C4F8003EC02323602D
:1023D0006E6D4FF40413A3633369002BFCDA012301
:1023E00033610C20FFF792FA3369DB07FCD412202B
:1023F000FFF78CFA3369002BFCDA0026A66028462A
:10240000FFF738FF6B68C4F81068DB68C4F814681D
:10241000C4F81C684BB90A4BA3614FF0FF336361EA
:10242000A36843F00103A36070BD064BF4E700BF4F
:10243000B02C00200038024040140040030020026D
:10244000003C30C0083C30C0F8B5446D0546002162
:102450002046FFF779FFA96D00234FF001128F6826
:10246000C4F834384FF00066C4F81C284FF0FF3031
:1024700004EB431201339F42C2F80069C2F8006BBB
:10248000C2F80809C2F8080BF2D20B686A6DEB6556
:10249000636210231361166916F01006FBD1122037
:1024A000FFF734FAD4F8003823F4FE63C4F8003898
:1024B000A36943F4402343F01003A3610923C4F844
:1024C0001038C4F814380A4BEB604FF0C043C4F81E
:1024D000103B084BC4F8003BC4F81069C4F800393D
:1024E000EB6D03F1100243F48013EA65A362F8BDBB
:1024F0007436000840800010426D90F84E10D2F8FB
:10250000003823F4FE6343EA0113C2F80038704731
:102510002DE9F84300EB8103456DDA68166806F093
:102520000306731E022B05EB41130C4680460FFA7F
:1025300081F94FEA41104FF00001C3F8101B4FF032
:10254000010104F1100398BFB60401FA03F3916985
:102550008EBF334E06F1805606F5004600293AD06C
:10256000578A04F15801490137436F50D5F81C18B8
:102570000B43C5F81C382B180021C3F810195369F8
:102580000127611EA7409BB3138A928B9B08012AE7
:1025900088BF5343D8F85C20981842EA034301F1FE
:1025A000400205EB8202C8F85C00214653602846D1
:1025B000FFF7CAFE08EB8900C3681B8A43EA84530D
:1025C000483464011E432E51D5F81C381F43C5F80A
:1025D0001C78BDE8F88305EB4917D7F8001B21F4F8
:1025E0000041C7F8001BD5F81C1821EA0303C0E717
:1025F00004F13F0305EB83030A4A5A60284621464B
:10260000FFF7A2FE05EB4910D0F8003923F4004390
:10261000C0F80039D5F81C3823EA0707D7E700BF10
:102620000080001000040002826D1268C265FFF78E
:1026300021BE00005831436D49015B5813F400403E
:1026400004D013F4001F0CBF0220012070470000CB
:102650004831436D49015B5813F4004004D013F432
:10266000001F0CBF022001207047000000EB810119
:10267000CB68196A0B6813604B68536070470000A1
:1026800000EB810330B5DD68AA691368D36019B91E
:10269000402B84BF402313606B8A1468426D1C4436
:1026A000013CB4FBF3F46343033323F0030302EB75
:1026B000411043EAC44343F0C043C0F8103B2B68C9
:1026C00003F00303012B09B20ED1D2F8083802EB54
:1026D000411013F4807FD0F8003B14BF43F08053C7
:1026E00043F00053C0F8003B02EB4112D2F8003B2C
:1026F00043F00443C2F8003B30BD00002DE9F04137
:10270000244D6E6D06EB40130446D3F8087BC3F8E6
:10271000087B38070AD5D6F81438190706D505EB13
:1027200084032146DB6828465B689847FA071FD573
:10273000D6F81438DB071BD505EB8403D968CCB970
:102740008B69488A5A68B2FBF0F600FB16228AB9F8
:102750001868DA6890420DD2121AC3E900242023C7
:1027600083F311880B482146FFF78AFF84F3118811
:10277000BDE8F081012303FA04F26B8923EA020326
:102780006B81CB68002BF3D021460248BDE8F041B5
:10279000184700BFB02C002000EB810370B5DD6846
:1027A000436D6C692668E6604A0156BB1A444FF4D3
:1027B0000020C2F810092A6802F00302012A0AB2B6
:1027C0000ED1D3F8080803EB421410F4807FD4F83C
:1027D000000914BF40F0805040F00050C4F80009D8
:1027E00003EB4212D2F8000940F00440C2F800099D
:1027F000D3F83408012202FA01F10143C3F8341876
:1028000070BD19B9402E84BF4020206020682E8AF8
:102810008419013CB4FBF6F440EAC44040F0005097
:102820001A44C6E7F8B504461E48456D05EB441347
:10283000D3F80869C3F80869F10717D5D5F8103837
:10284000DA0713D500EB8403D9684B691F68DA688F
:10285000974218D2D21B00271A605F60202383F3AF
:1028600011882146FFF798FF87F31188330617D5A3
:10287000D5F834280123A340134211D02046BDE8E7
:10288000F840FFF723BD012303FA04F2038923EA8A
:10289000020303818B68002BE8D021469847E5E7C7
:1028A000F8BD00BFB02C00202DE9F74F984C666DA5
:1028B0007569B3691D4015F48058756107D02046CD
:1028C000FEF70EFD03B0BDE8F04FFFF785BC002D0D
:1028D00012DAD6F8003E8E489F071EBFD6F8003E9B
:1028E00023F00303C6F8003ED6F8043823F00103B2
:1028F000C6F80438FEF71CFD280505D58448FFF707
:10290000B9FC8348FEF704FDA9040CD5D6F80838B5
:1029100013F0060FF36823F470530CBF43F4105305
:1029200043F4A053F3602A0704D56368DB680BB156
:1029300077489847EB0274D4AF0227D5D4F8549067
:10294000DFF8CCB100274FF0010A09EB4712D2F8AB
:10295000003B03F44023B3F5802F11D1D2F8003BA4
:10296000002B0DDA62890AFA07F322EA0303638176
:1029700004EB8703DB68DB6813B139465846984798
:10298000A36D01379B68FFB29F42DED9E80617D5D9
:10299000676D3A6AC2F30A1002F00F0302F4F012F4
:1029A000B2F5802F00F08880B2F5402F08D104EBFB
:1029B00083030022DB681B6A07F5805790426DD1C4
:1029C0002903D6F8184813D5E20302D50020FFF7F3
:1029D00095FEA30302D50120FFF790FE670302D501
:1029E0000220FFF78BFE260302D50320FFF786FEA9
:1029F0006D037FF567AFE00702D50020FFF712FFF8
:102A0000A10702D50120FFF70DFF620702D50220C2
:102A1000FFF708FF23077FF555AF0320FFF702FFFD
:102A200050E7636DDFF8E8B0019300274FF0010A2B
:102A3000A36D9B685FFA87F999453FF67DAF019BCF
:102A400003EB4913D3F8002902F44022B2F5802F9A
:102A500022D1D3F80029002A1EDAD3F8002942F047
:102A60009042C3F80029D3F80029002AFBDB606DEF
:102A70004946FFF769FC22890AFA09F322EA0303AF
:102A8000238104EB8903DB689B6813B149465846F0
:102A900098474846FFF71AFC0137C9E7910708BF76
:102AA000D7F80080072A98BF03F8018B02F10102D2
:102AB00098BF4FEA182881E7023304EB830207F539
:102AC00080575268D2F818C0DCF80820DCE9001CF6
:102AD000A1EB0C0C002188420AD104EB830463684B
:102AE0009B699A6802449A605A6802445A6067E790
:102AF00011F0030F08BFD7F800808C4588BF02F89B
:102B0000018B01F1010188BF4FEA1828E3E700BFFC
:102B1000B02C0020436D03EB4111D1F8003B43F48E
:102B20000013C1F8003B7047436D03EB4111D1F82E
:102B3000003943F40013C1F800397047436D03EBCB
:102B40004111D1F8003B23F40013C1F8003B70475A
:102B5000436D03EB4111D1F8003923F40013C1F8A0
:102B60000039704700F1604303F561430901C9B2C0
:102B700083F80013012200F01F039A4043099B00D1
:102B800003F1604303F56143C3F880211A60704785
:102B900030B5039C0172043304FB0325C0E90653DE
:102BA000049B03630021059BC160C0E90000C0E9EC
:102BB0000422C0E90842C0E90A11436330BD0000A5
:102BC000416A0022C0E90411C0E90A22C2606FF024
:102BD0000101FEF70BBF0000D0E90432934201D19E
:102BE000C2680AB9181D7047002070470369196050
:102BF000C2680132C260C2691344826903619342B0
:102C000024BF436A03610021FEF7E4BE38B50446E1
:102C10000D46E3683BB16269131D1268A362134459
:102C2000E362002007E0237A33B929462046FEF705
:102C3000C1FE0028EDDA38BD6FF00100FBE70000AF
:102C4000C368C269013BC36043691344826943613D
:102C5000934224BF436A436100238362036B03B141
:102C60001847704770B52023044683F31188866A9D
:102C70003EB9FFF7CBFF054618B186F31188284609
:102C800070BDA36AE26A13F8015BA362934202D3A8
:102C90002046FFF7D5FF002383F31188EFE70000FC
:102CA0002DE9F84F04460E46174698464FF0200986
:102CB00089F311880025AA46D4F828B0BBF1000F8B
:102CC00009D141462046FFF7A1FF20B18BF31188BF
:102CD0002846BDE8F88FD4E90A12A7EB050B521A73
:102CE000934528BF9346BBF1400F1BD9334601F1F2
:102CF000400251F8040B43F8040B9142F9D1A36A46
:102D000040334036A3624035D4E90A239A4202D3C5
:102D10002046FFF795FF8AF31188BD42D8D289F388
:102D20001188C9E730465A46FDF7D6FFA36A5B44CF
:102D30005E44A3625D44E7E710B5029C0172043370
:102D400004FB0321C0E906130023C0E90A33039BF7
:102D50000363049BC460C0E90000C0E90422C0E929
:102D60000842436310BD0000026AC260426AC0E9C3
:102D700004220022C0E90A226FF00101FEF736BEEC
:102D8000D0E904239A4201D1C26822B9184650F80A
:102D9000043B0B607047002070470000C368C269A5
:102DA0000133C3604369134482694361934224BF82
:102DB000436A43610021FEF70DBE000038B50446AA
:102DC0000D46E3683BB123691A1DA262E269134410
:102DD000E362002007E0237A33B929462046FEF754
:102DE000E9FD0028EDDA38BD6FF00100FBE70000D7
:102DF00003691960C268013AC260C26913448269FA
:102E00000361934224BF436A036100238362036B1F
:102E100003B118477047000070B520230D460446E3
:102E2000114683F31188866A2EB9FFF7C7FF10B1E8
:102E300086F3118870BDA36A1D70A36AE26A01332C
:102E40009342A36204D3E16920460439FFF7D0FF1F
:102E5000002080F31188EDE72DE9F84F04460D4678
:102E6000904699464FF0200A8AF311880026B3460F
:102E7000A76A4FB949462046FFF7A0FF20B187F364
:102E800011883046BDE8F88FD4E90A073A1AA8EB52
:102E90000607974228BF1746402F1BD905F140036C
:102EA00055F8042B40F8042B9D42F9D1A36A403316
:102EB000A3624036D4E90A239A4204D3E16920464A
:102EC0000439FFF795FF8BF311884645D9D28AF371
:102ED0001188CDE729463A46FDF7FEFEA36A3B443A
:102EE0003D44A3623E44E5E7D0E904239A4217D16A
:102EF000C3689BB1836A8BB1043B9B1A0ED01360ED
:102F0000C368013BC360C3691A44836902619A4282
:102F100024BF436A0361002383620123184670477C
:102F20000023FBE700F088B84FF08043002258638D
:102F30001A610222DA6070474FF080430022DA60A3
:102F4000704700004FF08043586370474FF0804354
:102F5000586A70474B6843608B688360CB68C36076
:102F60000B6943614B6903628B6943620B680360C1
:102F70007047000008B5264B26481A6940F2FF1139
:102F80000A431A611A6922F4FF7222F001021A61DF
:102F90001A691A6B0A431A631A6D0A431A651E4AA4
:102FA0001B6D1146FFF7D6FF02F11C0100F5806092
:102FB000FFF7D0FF02F1380100F58060FFF7CAFF8C
:102FC00002F1540100F58060FFF7C4FF02F17001C7
:102FD00000F58060FFF7BEFF02F18C0100F5806014
:102FE000FFF7B8FF02F1A80100F58060FFF7B2FF1C
:102FF00002F1C40100F58060FFF7ACFF02F1E001CF
:1030000000F58060FFF7A6FFBDE8084000F09AB821
:103010000038024000000240A436000808B500F065
:1030200007FAFEF737FCFFF78DF8BDE80840FEF71A
:1030300059BE000070470000104B1A6C42F00102AC
:103040001A641A6E42F001021A660D4A1B6E9368EA
:1030500043F0010393604FF0804353229A624FF094
:10306000FF32DA6200229A615A63DA605A60012202
:103070005A6108211A601C20FFF774BD0038024015
:10308000002004E04FF0804208B51169D3680B407E
:10309000D9B2C9439B07116107D5202383F3118857
:1030A000FEF718FC002383F3118808BD08B5FFF76D
:1030B000E9FFBDE80840FFF78FB800001F4B1A6911
:1030C0006FEAC2526FEAD2521A611A69C2F3080259
:1030D0001A614FF0FF301A695A69586100215A6924
:1030E00059615A691A6A62F080521A621A6A02F0C9
:1030F00080521A621A6A5A6A58625A6A59625A6A3D
:103100001A6C42F080521A641A6E42F080521A66AB
:103110001A6E0B4A106840F480701060186F00F44B
:103120004070B0F5007F1EBF4FF4803018671967FC
:10313000536823F40073536000F05AB9003802401A
:1031400000700040334B4FF080521A64324A4FF403
:10315000404111601A6842F001021A601A68910732
:10316000FCD59A6822F003029A602A4B9A6812F002
:103170000C02FBD1196801F0F90119609A601A6814
:1031800042F480321A601A689203FCD55A6F42F0FA
:1031900001025A671F4B5A6F9007FCD51F4A5A60AD
:1031A0001A6842F080721A601B4A53685904FCD5B1
:1031B000184B1A689201FCD5194A9A60194B1A6883
:1031C000194B9A42194B21D1194A1168194A914257
:1031D0001CD140F205121A60144A136803F00F0361
:1031E000052BFAD10B4B9A6842F002029A609A685A
:1031F00002F00C02082AFAD15A6C42F480425A6456
:103200005A6E42F480425A665B6E704740F2057215
:10321000E1E700BF00380240007000401054400752
:1032200000948838002004E011640020003C024033
:1032300000ED00E041C20F41084A08B5516913682A
:103240000B4003F00103536123B1054A13680BB12E
:1032500050689847BDE80840FEF7BEBF003C0140FB
:10326000282D0020084A08B5516913680B4003F067
:103270000203536123B1054A93680BB1D0689847A4
:10328000BDE80840FEF7A8BF003C0140282D002003
:10329000084A08B5516913680B4003F004035361F1
:1032A00023B1054A13690BB150699847BDE808403E
:1032B000FEF792BF003C0140282D0020084A08B5C7
:1032C000516913680B4003F00803536123B1054AA9
:1032D00093690BB1D0699847BDE80840FEF77CBF01
:1032E000003C0140282D0020084A08B551691368A8
:1032F0000B4003F01003536123B1054A136A0BB16D
:10330000506A9847BDE80840FEF766BF003C0140A0
:10331000282D0020174B10B55A691C68144004F47E
:1033200078725A61A30604D5134A936A0BB1D06A26
:103330009847600604D5104A136B0BB1506B984741
:10334000210604D50C4A936B0BB1D06B9847E2056C
:1033500004D5094A136C0BB1506C9847A30504D5EA
:10336000054A936C0BB1D06C9847BDE81040FEF74E
:1033700033BF00BF003C0140282D00201A4B10B580
:103380005A691C68144004F47C425A61620504D5F1
:10339000164A136D0BB1506D9847230504D5134A97
:1033A000936D0BB1D06D9847E00404D50F4A136EAE
:1033B0000BB1506E9847A10404D50C4A936E0BB123
:1033C000D06E9847620404D5084A136F0BB1506F52
:1033D0009847230404D5054A936F0BB1D06F9847E3
:1033E000BDE81040FEF7F8BE003C0140282D00204B
:1033F000062108B50846FFF7B5FB06210720FFF7B1
:10340000B1FB06210820FFF7ADFB06210920FFF7DD
:10341000A9FB06210A20FFF7A5FB06211720FFF7CD
:10342000A1FBBDE8084006212820FFF79BBB000058
:1034300008B5FFF743FE00F00BF8FDF7E9FEFDF7D6
:10344000C1FDFFF7F7FDBDE80840FFF76BBD0000C9
:103450000023054A19460133102BC2E9001102F17D
:103460000802F8D1704700BF282D0020034611F84C
:10347000012B03F8012B002AF9D1704753544D3327
:1034800032463F3F3F00000053544D333246343004
:10349000780053544D3332463432780053544D3310
:1034A0003246343436585800000000007C3400089E
:1034B0003F00000013040000883400083F000000B3
:1034C00019040000923400083F00000021040000AD
:1034D0009C3400083F00000000000000410F00087D
:1034E0002D0F0008690F0008550F0008610F000834
:1034F0004D0F0008390F0008250F0008750F000850
:103500000000000001000000000000006D61696E15
:103510000000000069646C650000000014350008BC
:10352000D823002050250020010000009118000839
:10353000000000004172647550696C6F7400254290
:103540004F415244252D424C002553455249414C90
:103550002500000002000000000000005D110008CE
:10356000C911000840004000E8290020F829002087
:103570000200000000000000030000000000000046
:103580000D1200080000000010000000082A0020B2
:10359000000000000100000000000000B02C00202E
:1035A00001010200811C0008911B00082D1C00086D
:1035B000111C000843000000BC350008090243004C
:1035C000020100C0320904000001020201000524CA
:1035D0000010010524010001042402020524060054
:1035E00001070582030800FF09040100020A000028
:1035F00000070501024000000705810240000000AD
:1036000012000000083600081201100102000040FC
:1036100009124157000201020301000004030904DA
:1036200025424F415244250050696E6775696E30DE
:10363000003031323334353637383941424344452E
:103640004600000000400000004000000040000074
:103650000040000000000100000002000000020025
:103660000000020000000200000002000000020052
:10367000000002000000000045130008FD150008CE
:10368000A916000840004000102D0020102D002039
:1036900001000000202D00208000000040010000FB
:1036A000030000000000800200000000AAAAAAAAED
:1036B00000000000FFFF00000000000000A00A0062
:1036C0000000000000000000AAAAAAAA0000000052
:1036D000FFFF0000000000000000000000050014D3
:1036E00000000000AAAAAAAA00050000FF9F00008F
:1036F00000000000000000000000000000000000CA
:10370000AAAAAAAA00000000FFFF00000000000013
:10371000000000000000000000000000AAAAAAAA01
:1037200000000000FFFF000000000000000000009B
:103730000000000000000000AAAAAAAA00000000E1
:10374000FFFF00000000000000000000000000007B
:1037500000000000AAAAAAAA00000000FFFF0000C3
:103760000000000000000000000000000000000059
:103770000A0000000000000003000000000000003C
:103780000000000000000000000000000000000039
:103790000000000000000000000000000000000029
:1037A000A40500000000000000000F000000000061
:1037B000FF009600000000080096000000000800CE
:1037C000040000001C36000800000000000000009B
:1037D00000000000000000000000000000000000E9
:00000001FF
